S0190000486F6D654875625F4F6E626F617264696E672E733337D1
S214012000C00A0020E5360100A1270300A12703002E
S214012010BF390300A1270300A1270300A12703005E
S214012020A1270300A1270300A1270300A12703007E
S214012030A1270300B4ED0300C1250300A127030077
S214012040A1270300A1270300A1270300A12703005E
S214012050A1270300A1270300A1270300A12703004E
S214012060A1270300A1270300917F01008D34010001
S21401207075260300A1270300A1270300A12703005B
S214012080A1270300A1270300A1270300A12703001E
S214012090A1270300993E0100A1270300A127030001
S2140120A0A1270300A1270300A1270300A1270300FE
S2140120B0A127030041DE0300A12703002911030025
S2140120C047DE030043DE0300E908030053DE030096
S2140120D04BDE0300ED1003004FDE030071F002003B
S2140120E069110300A1270300A1270300A12703000C
S2140120F0A1270300A1270300A1270300A1270300AE
S214012100A1270300A1270300A1270300A12703009D
S214012110A1270300A1270300A1270300A12703008D
S214012120A1270300A1270300A1270300A12703007D
S214012130A127030000000000002370B5404C0546AF
S2140121408AB0E36318B1008823600DF0A7FE3D480E
S2140121502BF0BCF93C4E3D4B304633603C4B736034
S21401216025F009FF0021304618F018FC32A3D3E908
S2140121700023A062C4E9062325F008FFD4E906235C
S214012180194310434FF0FF33C4E90601CDE90001BE
S2140121904FF0FF32A06A2BF0E0F902224FF0FF3138
S2140121A0A06A2BF0DFF901200DF026FB4FF4007337
S2140121B000222849A06A2BF02BFAB0F5007F38D10F
S2140121C000239422CDE9073309933C23CDE903325A
S2140121D005939623A06A03A9069318F0FBFC35B372
S2140121E0287C0DF00FFF0546F0B9A06A2BF0EDFA3A
S2140121F00DF0B0FE0DF0E2FA20B14FF48070002130
S2140122000AF0F0FA0DF0EAFA20B14FF4006000216E
S2140122100AF0E8FA25F07EFE012018F013FC0E4ABB
S2140122200E49A06A25F0A5FE28460AB070BDFF201B
S214012230D7E70725F8E700BF0DD5015520000000B8
S214012240180F0020690345EC2C22002089F60100B6
S21401225020220020202000201B7F03005B7F03003C
S21401226010B5054C237833B9044B13B1044800E08C
S21401227000BF0123237010BD68110020000000007C
S214012280541D040008B5034B1BB10349034800E085
S21401229000BF08BD000000006C110020541D0400A2
S2140122A0A3F5803A704700BF174B002B08BF134BAE
S2140122B09D46FFF7F5FF00218B460F461348144A4B
S2140122C0121A2BF013FE0E4B002B00D098470D4B25
S2140122D0002B00D098470020002104000D000D4877
S2140122E0002802D00C4800E000BF1FF019F92000BA
S2140122F0290020F059F91FF0FFF800BF0000080080
S2140123000000000000000000C00A0020A80E002007
S214012310D428002000000000000000002DE9F0474E
S21401232000250646DEB0F92229461FA81EAC256008
S2140123302BF0DCFDA6B12946B778CBB29F421CD85C
S2140123401F2D40F2A68020F0D3F920F0D2F9534B8E
S2140123502A465349186821F07EF941F2450009E002
S21401236020F0C6F920F0C5F94E494C4B186821F00B
S21401237072F922205EB0BDE8F087736803EBC103F3
S2140123805A785B6802321544EDB20131002BD4D184
S21401239020F0AEF920F0ADF94349E6E77268A81CD3
S2140123A002EBC90A9AF801305FFA80F801336355E7
S2140123B012F839300135EDB263559AF80120DAF892
S2140123C0041054FA80F02BF06AFD9AF8015009F1D6
S2140123D001094544EDB25FFA89F39F42DED8032036
S2140123E001F006F920B12D4B3049186821F033F978
S2140123F0042001F0FDF8002842D0E37F27481D9312
S214012400A37F2B491C93637F1B93237F1A93E37E41
S2140124101993A37E1893637E1793237E1693E37D09
S2140124201593A37D1493637D1393237D1293E37C0D
S2140124301193A37C1093637C0F93237C0E93E37B11
S2140124400D93A37B0C93637B0B93237B0A93E37A15
S2140124500993A37A0893637A0793237A0693E37919
S2140124600593A37904936379039323790293E3781D
S2140124700193A378009363782278006821F0EBF843
S21401248022462946307810F099FC0A4B1860002045
S21401249070E74FF000094D469DE700BF0812002087
S2140124A034E20300F0E103000DE2030060E2030002
S2140124B088E2030084110020062330B50C468FB055
S2140124C05168054610688DF8033005AA01AB03C3B1
S2140124D01346206861680B9203C3218903A81980FB
S2140124E040F20113ADF820300DF10303099340F6D5
S2140124F00923ADF828304FF40163ADF8303001AB55
S2140125000D9300238DF80D3003238DF80E3008ABA4
S21401251004938DF80C50FFF701FF084B186058B173
S21401252020F0E6F820F0E5F8054840F2AB13054A3E
S2140125300549006821F08FF80FB030BD84110020E6
S214012540081200202AE3030033E303000278044B59
S2140125501A7042785A70827802489A701FF090B9C1
S214012560952500204DE3030007B58DF804008DF88E
S21401257006100DF1060011468DF8052020F009F829
S2140125800C498DF807000C4801AB04220988007835
S21401259010F0AEFC094B186040B9032001F028F892
S2140125A020B1074B0749186821F055F803B05DF8CC
S2140125B004FB00BF38250020A02500208411002040
S2140125C00812002062E3030010B5032204461449F2
S2140125D014482BF054FC08BB0322204612492BF06A
S2140125E04EFC78B9032001F003F820B10F4B1049D7
S2140125F0186821F030F801221146BDE81040B320DA
S214012600FFF7B2BF032000F0F3FF20B1074B0949E3
S214012610186821F020F801220221EEE710BD00BF64
S214012620DE0C002095250020DB0C0020081200207F
S21401263085E30300C5E3030007B58DF804008DF8B4
S21401264006100DF1060011468DF805201FF0A1FFBA
S2140126500C498DF807000C4801AB04220988007864
S21401266010F046FC094B186040B9032000F0C0FF8B
S21401267020B1074B0749186820F0EDFF03B05DF85D
S21401268004FB00BF38250020A0250020841100206F
S214012690081200200DE4030008B50E481FF0F0F8FC
S2140126A0032000F0A5FF20B10B4B0C49186820F061
S2140126B0D2FF032000F09CFF20B1074B08491868A1
S2140126C020F0C9FFBDE808400122B6201146FFF7F9
S2140126D0B3BF00BF3DE403000812002071E403000D
S2140126E0B8E4030007B50B688DF8000011460DF13C
S2140126F002008DF80120CDF802301FF04AFF0C4988
S2140127008DF806000B486B4607220988007810F002
S214012710EFFB094B186040B9032000F069FF20B1B8
S214012720064B0749186820F096FF03B05DF804FBD6
S21401273038250020A0250020841100200812002042
S214012740E0E4030007B58DF800008DF802100DF1E6
S214012750020011468DF801201FF01BFF13498DF86A
S214012760030013486B4604220988007810F0C0FB6A
S214012770104B1860B0B9104B0320019300F038FFDE
S21401278020B10E4B0E49186820F065FF9DF8023007
S214012790012B07D104220DEB0201B52001F0FC014B
S2140127A0FFF7A0FF03B05DF804FB00BF382500204B
S2140127B0A025002084110020010102030812002038
S2140127C020E5030008B505220F492BF058FB78B920
S2140127D0032000F00DFF20B10C4B0D49186820F0C6
S2140127E03AFF01221146BDE80840B420FFF7AABF10
S2140127F0032000F0FDFE20B1044B0649186820F0C6
S2140128002AFF01220221EEE7D60C00200812002042
S21401281057E5030098E5030007B58DF804008DF829
S21401282006100DF1060011468DF805201FF0B1FEC9
S2140128300C498DF807000C4801AB04220988007882
S21401284010F056FB094B186040B9032000F0D0FE8B
S21401285020B1074B0749186820F0FDFE03B05DF86C
S21401286004FB00BF38250020A0250020841100208D
S21401287008120020E1E50300F0B5044601688FB0B8
S21401288093481EF061FF2368924A23F47F4323F0A6
S2140128900703934200F07C820DD88F4A934200F0E2
S2140128A0EC8102F18072934200F07A838B4A934264
S2140128B059D00FB0F0BD8A4A934200F0F98202F176
S2140128C07F7202F54032934200F0C38202F17C42ED
S2140128D09342EED1834D2B78012BEAD1032000F0F1
S2140128E087FE20B1804B8149186820F0B4FE042091
S2140128F000F07EFE002822D0637A7B480D93A37AEF
S2140129007B490C93E37A0B93237B0A93637B0993AE
S214012910A37B0893E37B0793237C0693637C059351
S214012920A37C0493E37C0393237D0293637D01934D
S214012930A37D0093E37D227E006820F08CFE0420B8
S21401294000F056FE30B1684BB4F8052069491868A6
S21401295020F081FEA279637943EA0223664A138056
S21401296002232B70A5E7654E6549304610F0D6FA6E
S214012970644D286010B35C4C6349206820F06BFE00
S2140129806249206820F067FE1FF0B2FE1FF0B1FE1C
S2140129905F4B604A009360498923206820F05BFE04
S2140129A05E492B685E4A206820F055FE286800F0D4
S2140129B065FE5C49206820F04EFEFEE75A4C7379AE
S2140129C00420E3713379A371F3786371FE232371D5
S2140129D0FF23E370B378A370737863703378237042
S2140129E000F006FE90B1E3793F480593A3794F497D
S2140129F004936379039323790293E3780193A3788D
S214012A00009363782278006820F025FE0822464B62
S214012A100021182010F03EFA4D23454C6F222370FA
S214012A207923E27063706D2248232271A3706522B8
S214012A30E371752362712372202262232860A271DA
S214012A400420637200F0D4FDB0B1637A2648079380
S214012A50237A38490693E3790593A3790493637936
S214012A60039323790293E3780193A3780093637821
S214012A702278006820F0EFFD0A2200210B202C4B63
S214012A8010F008FA2860002856D0174C1E49206816
S214012A9020F0E1FD1D49206820F0DDFD1FF028FE35
S214012AA01FF027FE1A4B1B4A00931B49C4232068BC
S214012AB020F0D1FD19492B68194A206820F0CBFD7A
S214012AC0286800F0DBFD1749206820F0C4FDFEE70A
S214012AD00FE60300A0000901A0000600A000010007
S214012AE0A0000A02A12500200812002049E80300E0
S214012AF06FE80300FBE80300382500208E25002040
S214012B00942500208411002047E8030027E60300EF
S214012B10EEE903002AE303002CE603003BE603008C
S214012B2038E6030050E603009825002061E603001E
S214012B30A22500209DE60300824C204610F0B4F842
S214012B400346286010B3804C8049206820F083FD3E
S214012B507F49206820F07FFD1FF0CAFD1FF0C9FDE8
S214012B607C4B7D4A00937D49C823206820F073FD85
S214012B707B492B687B4A206820F06DFD286800F0B1
S214012B807DFD7949206820F066FDFEE7A0220090D1
S214012B901146207810F0A0F8286010B36A4C6B49F3
S214012BA0206820F058FD6A49206820F054FD1FF087
S214012BB09FFD1FF09EFD674B674A00936749D02330
S214012BC0206820F048FD66492B68664A206820F098
S214012BD042FD286800F052FD6349206820F03BFD65
S214012BE0FEE7624A62492078FFF766FC04222078F5
S214012BF0114610F0CDF80246286010B3524C5349E6
S214012C00206820F028FD5249206820F024FD1FF09E
S214012C106FFD1FF06EFD4F4B4F4A00934F49D72370
S214012C20206820F018FD4E492B684E4A206820F097
S214012C3012FD286800F022FD4B49206820F00BFDAC
S214012C40FEE70421207810F0CFF8286068B9032049
S214012C5000F0CEFC00283FF42CAE46493A4B1868EB
S214012C600FB0BDE8F04020F0F6BC032000F0C0FC39
S214012C7000283FF41EAE4049F0E7032000F0B8FC00
S214012C8020B1314B3D49186820F0E5FC217B3C4BD7
S214012C903C4819701EF058FD2A4B3B4D187810F031
S214012CA03DF8286010B3284C2849206820F0D3FC52
S214012CB02749206820F0CFFC1FF01AFD1FF019FDF0
S214012CC0244B254A00932549EE23206820F0C3FCB7
S214012CD023492B68234A206820F0BDFC286800F0B1
S214012CE0CDFC2149206820F0B6FCFEE71021274ADA
S214012CF0207B10F0A3F8286000283FF4DAAD124CD0
S214012D001249206820F0A7FC1149206820F0A3FC96
S214012D101FF0EEFC1FF0EDFC0E4B0F4A00930F491F
S214012D20F323206820F097FC0D492B680D4A206894
S214012D3020F091FC286800F0A1FC0B49206820F0E7
S214012D408AFCFEE7E10C00200812002047E8030099
S214012D5027E60300EEE903002AE303002CE603005E
S214012D603BE6030038E6030050E603009825002002
S214012D70A2250020D6E60300EFE603000DE70300D8
S214012D80A025002022E7030084110020DEE90300CD
S214012D90032000F02DFC20B1984B9949186820F0CB
S214012DA05AFC042000F024FC28B1944B2279954962
S214012DB0186820F050FC032000F01AFC20B18F4B5D
S214012DC09149186820F047FC042000F011FC30B14E
S214012DD08A4BD4F805208D49186820F03CFC8C4DB0
S214012DE0D4F8053004202B6000F002FC28B1834B98
S214012DF02A688649186820F02EFC042000F0F8FBAB
S214012E00002822D0A37A7D480D93E37A81490C935A
S214012E10237B0B93637B0A93A37B0993E37B089342
S214012E20237C0793637C0693A37C0593E37C04933E
S214012E30237D0393637D0293A37D0193E37D00933A
S214012E40237E627E006820F006FC0022724B1A7018
S214012E502FE5714D2B7803BB032000F0C9FB20B191
S214012E60664B6E49186820F0F6FB042000F0C0FBA4
S214012E70674E28B1614B32686449186820F0EBFB55
S214012E80674B1022316820790FF0EEFF654B186012
S214012E9000287FF40EAD012363E5022B7FF409AD14
S214012EA0032000F0A5FB00283FF403AD5E49D5E6FC
S214012EB05E481EF0E5FC5E4B002219885D4B594DBD
S214012EC018780FF0FDFF286018B34C4C5A4920685B
S214012ED020F0C1FB5949206820F0BDFB1FF008FC1B
S214012EE01FF007FC564B574A009357494FF4A173FE
S214012EF0206820F0B0FB55492B68554A206820F021
S214012F00AAFB286800F0BAFB5249206820F0A3FB10
S214012F10FEE76FF00A0650481EF0B2FC4F4F04F170
S214012F200B05361BA27A73199A4228DC0A201EF07A
S214012F3023FC267B04F10D05314628461FF029FBAC
S214012F40AB5D834221D1E37AB12B02D12846FFF74C
S214012F50FDFAE37AB22B02D12846FFF735FBE37A76
S214012F60B42B02D12846FFF72DFCE37AB62B7FF46B
S214012F70A0AC28460FB0BDE8F040FFF78DBB384641
S214012F8015F8011B1EF0E0FBCCE735481EF078FC77
S214012F900122AB21E07A0FB0BDE8F040FFF73CBC60
S214012FA0304D022128780FF0CBFE1E4C2060002801
S214012FB05AD0124D2049286820F04DFB1F49286839
S214012FC020F049FB1FF094FB1FF093FB1C4B1D4A9E
S214012FD000931D494FF4B473286820F03CFB1B494D
S214012FE023681B4A286820F036FB206800F046FB61
S214012FF01849286820F02FFBFEE700BF08120020C2
S2140130003DE7030063E70300A5E70300C4E7030009
S21401301088110020E0E70300A12500201CE9030039
S214013020CEE903008411002046E9030077E9030096
S21401303038250020A025002047E8030027E60300E6
S214013040EEE903002AE303002CE603003BE6030057
S21401305038E6030050E603007AE9030098E9030026
S2140130609EE90300E10C0020022128780FF07CFE87
S214013070206000283FF41DAC114D1249286820F04D
S214013080EAFA1149286820F0E6FA1FF031FB1FF032
S21401309030FB0E4B0E4A00930E4940F26D13286822
S2140130A020F0D9FA0C4923680C4A286820F0D3FA94
S2140130B0206800F0E3FA0A49286820F0CCFAFEE717
S2140130C00812002047E8030027E60300EEE90300A4
S2140130D02AE303002CE603003BE6030038E6030080
S2140130E050E60300036837B523F47F43444A23F0D0
S2140130F00703934240F08180082200211220414BB1
S2140131000FF0C8FE044610B33F4D4049286820F032
S214013110A2FA3F49286820F09EFA1FF0E9FA1FF04C
S214013120E8FA3C4B3C4A00933C493D23286820F092
S21401313092FA3B4923463B4A286820F08CFA2046FF
S21401314000F09CFA3849286820F085FAFEE7014627
S21401315003221420354B0FF09DFE044610B32A4D72
S2140131602A49286820F077FA2949286820F073FA56
S2140131701FF0BEFA1FF0BDFA264B274A00932749D7
S2140131804B23286820F067FA25492346254A2868F4
S21401319020F061FA204600F071FA2349286820F0F1
S2140131A05AFAFEE7014605221620214B0FF072FE61
S2140131B0054610B3144C1549206820F04CFA144902
S2140131C0206820F048FA1FF093FA1FF092FA114B8C
S2140131D0114A009311495923206820F03CFA1049FE
S2140131E02B46104A206820F036FA284600F046FAA8
S2140131F00D49206820F02FFAFEE703B030BD00BF6E
S214013200A0000100FDE903000812002047E80300C2
S21401321027E6030038EA030006EA03002CE603006B
S2140132203BE6030038E6030050E603002EEA0300FF
S21401323032EA030010B51E4C1FF036FB236F23F055
S214013240070343F0020323671FF035FBD4F8203150
S214013250002023F0070343F00103C4F82031D4F81B
S214013260403123F0030343F00203C4F84031D4F89D
S214013270603123F0030343F00203C4F86031D4F84D
S214013280403223F0030343F00203C4F84032D4F87B
S214013290003223F0070343F00203C4F80032D4F8E7
S2140132A0083223F0070343F00203C4F8083210BDC6
S2140132B00080005007B501A801F062FD9DF80530B9
S2140132C0012B27D1234A936DDB0313D4536B23F4CD
S2140132D0FF0323F4FE4343F4BC1343F4A063536398
S2140132E0136B23F4704343F440431363136B43F4AB
S2140132F0E06313639DF8043063B94FF000531B6815
S214013300154B1B68154B1B68154B1B68154B1B682B
S214013310154B1B68154AD2F8803043F00303C2F8F8
S214013320803003F04DFB1FF0FBF903F033FB03F095
S214013330EFFA03F0F5FAFFF77DFF03F0D7FA1FF077
S214013340EDF900F0CBFA00F0F1FD03B05DF804EB07
S21401335003F0A0BF00C00050004000200080002005
S21401336000C0002000000120004001200080005025
S21401337030B5204D95B00DAC0FCD0FC495E80700C4
S214013380032384E8070001248DF84D301A4A1B4BAD
S2140133900021CDE903231A4B102209A8CDE90534F3
S2140133A02AF0A4FD4FF48021164B0DAACDE9071390
S2140133B00B238DF824300C238DF82530124B07A9EA
S2140133C00A9320230B93114B1148009303AB8DF8FE
S2140133D0314003F029FD04469DF832304FF4E130C8
S2140133E0002B0CBF032100211FF0CBF9204615B09E
S2140133F030BD00BFF4EC030000800550210005003D
S2140134000600040224800550AC2500208C11002003
S214013410E4110020831E012B10B512D8012910D803
S214013420114B04221B6905210020C3F3401301F050
S2140134301DFB0E4B1B681868A8B1BDE81040436A17
S21401344018478B1E012B0CD801280CD8BDE810405C
S2140134500022054B05211B691046C3F3401301F0FA
S21401346005BB0129E5D910BD00C00350C80A0020DC
S21401347008B50449044803F0B7FFBDE80840FFF764
S21401348077BF00BFC00A0020DC110020014820F0F1
S2140134904CBA00BFE4110020014B1A6A18681047A5
S2140134A0E41100207FB500240368464A23F47F43D5
S2140134B023F00703934205468DF808408DF809402E
S2140134C08DF80A408DF80B408DF80C408DF80D40B4
S2140134D06DD002F18272934271D1B0F805301F2B84
S2140134E06DD1FF2304A91A4611E903001FF0F9F86C
S2140134F0012814BF41F2FC14334B4FF01F0108BFE3
S214013500187004F0FC0228790FF0DAFC064610B3B6
S2140135102E4C2F49206820F09EF82E49206820F076
S2140135209AF81FF0E5F81FF0E4F82B4B2B4A0093AE
S2140135302B494E23206820F08EF82A4933462A4A22
S214013540206820F088F8304600F098F8274920686F
S21401355020F081F8FEE71C4B1B78002B2FD0287932
S2140135600FF05AFC054650B3184C1949206820F054
S21401357072F81849206820F06EF81FF0B9F81FF0AD
S214013580B8F8154B154A009315495423206820F0C6
S21401359062F814492B46144A206820F05CF8284645
S2140135A000F06CF81149206820F055F8FEE7064B4C
S2140135B01B7823B104B0BDE8704020F0A6BA04B071
S2140135C070BD00BFA0000601CC2500200812002017
S2140135D047E8030027E603008DED030010ED030026
S2140135E02CE603003BE6030038E6030050E6030042
S2140135F00B4B02461B788BB10A4B1B78834234BFB8
S21401360000200120084B1B783BB1084B1B7843FA7E
S21401361002F212F0010F08BF002070470120F1E707
S214013620E20C0020E30C0020CD250020E40C002055
S214013630012208B5074B1A700022074B1A700422A4
S214013640064B1A701F22064B1A7003F0E3F9054B5E
S214013650186008BDE20C0020CD250020E30C0020F8
S214013660E40C002008120020024B034918681FF0E2
S214013670F2BF00BF08120020ADED030070B50C4C80
S2140136800C49064620681FF0E6FF03F0C3F905461D
S214013690206803F0B3F93046FFF7E6FF284603F04B
S2140136A0ADF920680449BDE870401FF0D4BF00BFE3
S2140136B008120020AFED0300B1ED030007B50820A6
S2140136C01FF07EF802238DF80030054B6846019303
S2140136D01FF027F8082003B05DF804EB1FF07CB854
S2140136E0006A181008B500F02DF8124B12498B42EB
S2140136F012D30020114B12498B4218D3FEF7D4FD8A
S214013700186850F82240586840F8224001329868FC
S2140137108242F5D30C33EAE70022F8E71C6844F846
S214013720220001325C68A242F8D30833E4E70022A3
S214013730F8E700BF5C1D0400681D0400681D040056
S214013740681D04006FF00100104B114A10B59A6015
S214013750D3F888200F4942F47002C3F8882001F597
S2140137600052106641F2FF7050660220C3F8D00086
S214013770BFF34F8FBFF36F8F08244FF440330648D3
S214013780C0F88041D36004600B6110BD00ED00E01D
S214013790002001000080004400E100E0014B1868B1
S2140137A0704700BFD00A0020014B1860704700BF69
S2140137B0D00A0020084B1B6F03F00703022B04D02E
S2140137C0032B05D0012B05D0FEE7044B1868704784
S2140137D0034BFBE70348704700800050D00A0020E7
S2140137E0D40A0020002D310108B5FFF7E3FF054B91
S2140137F01B6FC3F301330133B0FBF3F0024B1860C8
S21401380008BD00BF00800050CC0A00200048704769
S21401381000B4C404014B1868704700BFD40A0020E6
S214013820054B1860054B1B6F03F00703032B01D1F3
S214013830FFF7DABF704700BFD40A002000800050AF
S21401384000487047002D3101174B9868C0F30440BB
S2140138500C2822D8DFE800F00921212121210717B1
S21401386019211B1D1F00114870479B6803F0407308
S214013870B3F1807F13D0B3F1007F12D00C4A002B36
S21401388008BF104670470B4870470B4870470B48F7
S21401389070470B4870470B487047002070470A482E
S2140138A070470A48704700BF0040015A405DC60095
S2140138B000093D000024F400C0EA210180BA8C0111
S2140138C00048E801005A620280841E0040420F0050
S2140138D0014B1868704700BFD80A00200020836A91
S2140138E010B5B3F5903F0ED21968084A91420AD135
S2140138F0074C227812F0FD0F04D1DB69984708B90E
S2140139000123237010BD4FF48170FBE707B0CD5E35
S214013910CE2500204FF00053074A1A60BFF34F8FA1
S2140139200649074BCA6802F4E0621343CB60BFF353
S2140139304F8F00BFFDE700BF02020FF000ED00E071
S2140139400400FA0505490A681318054883428CBF26
S2140139504FF0FF320B601046704700BFDC0A0020B4
S2140139600080012008B5032101230422002001F074
S2140139707DF800201EF0CEFF0122244B0C20C3F858
S2140139804424234AD2F8803043F00303C2F880303F
S21401399000F03AFD1F4B00F5D520D3F8F02000F2D9
S2140139A0FC4042F00102C3F8F020D3F8FC2042F0BC
S2140139B08072C3F8FC20184AA3F55D431A60174BC2
S2140139C00222B0FBF3F0164B01381861C3F8F02061
S2140139D04FF48072C3F804234FF06043114A00206D
S2140139E0C3F8B02F104AC3F8802ED3F8002E42F445
S2140139F08072C3F8002EFF2283F82020D3F8002E11
S214013A0022F48072C3F8002E08BD00BF00D0035018
S214013A100080005000ED00E0FF030040F8590D0063
S214013A20000004E055CEACC5090001004FF060432C
S214013A30D3F8802E30B5D20715D501240B4D84401E
S214013A40D5F8FC2042F08072C5F8FC20D3F8002E91
S214013A502243C3F8002E53F82020002AF0D003F8A2
S214013A602010002030BD1120FCE700BF00ED00E073
S214013A702DE9F04F9A46564B85B01B7806460F4601
S214013A801546DDF83C909DF844B0DDF85080002BDB
S214013A9000F08D80072A00F28C800E9B002B00F030
S214013AA08880B9F1000F00F08480129BB3F5006F97
S214013AB07FDC012802D1109B002B7AD0454B03EB0B
S214013AC005131B7B002B76D0434C10220021684641
S214013AD02AF00CFA04EB45141022002F59D139466E
S214013AE020462AF003FA43F210036380BBF1000F6D
S214013AF003D1E37843F00303E370374A0E9B02EBEE
S214013B00451CCCE90193129B6901013BC3F30A00F2
S214013B109DF84C30012E03F003034FEA836343EA1A
S214013B20001E53582D48CDF800A000EA03004EEAC7
S214013B300003535041D113230CF1100ECCF80C3076
S214013B409CE80F008EE80F006FF00301DCF81C20E4
S214013B50109B61F39F02012FCCF81C20CCF8143087
S214013B6003D1CCF81890CCF804300027194A290163
S214013B7002EB051342F80180159A28465A606946F9
S214013B8022469F605E7300F0FFFF384605B0BDE831
S214013B90F08F002120462AF0A9F94FF44473638080
S214013BA0BBF1000FA9D1E37843F03003A4E70C483A
S214013BB0ECE70C48EAE70C48E8E7B8F1000FD4D187
S214013BC09CF8023068F304138CF80230CDE700BF8E
S214013BD0CF2500200C1200208C1200200F80FFF34E
S214013BE0028000F0018000F0078000F038B5124B2B
S214013BF005461B78DBB1E0B11EF06EFE0F4A0023CE
S214013C001146147B54B92B6001251A0101EB0313ED
S214013C101D738C501EF066FE204638BD0133082BFE
S214013C2002F11002EDD11EF05DFE0548F5E70548EC
S214013C30F3E70548F1E700BFCF2500200C1200206E
S214013C40048000F0028000F0018000F013B51EF041
S214013C5043FE00230B4A147B7CB90133082B02F187
S214013C601002F8D1019000F043FF074B01981C7039
S214013C701EF038FE204602B010BD1EF033FE03488B
S214013C80F9E700BF0C120020CF250020058000F0C8
S214013C900D4B10B51B78044693B1072812D81EF0B9
S214013CA01BFE0A4B03EB04131A7B2AB100241C7378
S214013CB01EF018FE204610BD1EF014FE0448FAE75A
S214013CC00448F8E70448F6E7CF2500200C12002048
S214013CD0068000F0028000F0018000F0154B13B55D
S214013CE01868002301908DF804301EF0F5FD124B84
S214013CF01C7824B11EF0F6FD104802B010BD01225A
S214013D001A701EF0EFFD0E4B01A81C731C7783F88A
S214013D102C4083F83C4083F84C4083F85C4083F8A1
S214013D206C4083F87C4008238DF8073000F002FFD2
S214013D302046E2E704EE0300CF250020038000F0D2
S214013D400C1200200A4A08B512785AB107280BD877
S214013D50084A02EB00131B7B43B1002100F0DCFE96
S214013D60002008BD0448FCE70448FAE70448F8E7E1
S214013D70CF2500200C120020028000F0018000F008
S214013D80078000F00A4A08B512785AB107280BD8FE
S214013D90084A02EB00131B7B43B1012100F0BCFE75
S214013DA0002008BD0448FCE70448FAE70448F8E7A1
S214013DB0CF2500200C120020028000F0018000F0C8
S214013DC0078000F00A4A08B5127852B107280AD8C7
S214013DD0084A02EB00131B7B3BB100F023FF0020D7
S214013DE008BD0548FCE70548FAE70548F8E700BFBF
S214013DF0CF2500200C120020028000F0018000F088
S214013E00078000F00D4B1B7893B1072812D889B1B3
S214013E100B4B03EB00131B7B73B10A4B1A6D01238B
S214013E2003FA00F010401ABF00200B7008707047AC
S214013E30054870470548704705487047CF2500205C
S214013E400C12002000000450028000F0018000F0F7
S214013E50078000F00B4A10B512780C4662B10728AD
S214013E600CD859B1084A02EB00131B7B43B100F092
S214013E70EBFE2070002010BD0448FCE70448FAE77A
S214013E800448F8E7CF2500200C120020028000F03D
S214013E90018000F0078000F0204B2DE9F0471F6DF0
S214013EA05A6D1F4C174010D54FF000411D4A116541
S214013EB0D868C0F304200301E35804EB00125BB397
S214013EC0BDE8F04700215268184701260025DFF8B3
S214013ED05480DFF85490374217D02368C8F85060F2
S214013EE09BB1A168284601316268A1609847637B4F
S214013EF0012B0AD148B909EB45131A7B60F341023D
S214013F001A731A7F60F341021A770135082D4FEABA
S214013F10460604F11004DED1BDE8F0870000045027
S214013F200C120020002004508C120020024B19684D
S214013F30024B186816F046B9E40A0020E00A002091
S214013F4037B5920004460D4601922AF049F9431C02
S214013F500BD060B929462046019A29F090FF002827
S214013F60044808BF002003B030BD0348FBE7034800
S214013F70F9E700BF10E000F021E000F024E000F0D7
S214013F8010B504462AF024F9431C10D088B900F075
S214013F901FFF234620F003002044984201D1002051
S214013FA010BD53F8042B0132F7D00348F8E7034855
S214013FB0F6E70348F4E700BF0EE000F021E000F06A
S214013FC024E000F008B51EF080FC014B186008BD27
S214013FD0CC190020014B18681EF07BBCCC190020C0
S214013FE041F6713310B5104C104AA0428CBF4FF405
S214013FF080140024D169D363936801F4803123F4DB
S2140140004013234393600A4B98420A4BD3F8182275
S2140140108CBF42F0020222F00202C3F8182211B14C
S2140140200022024BDA6310BD005A62020000035000
S21401403080F0FA0200C007502E4B98424AD022D890
S2140140402D4B984240D014D82C4B984239D00AD8E0
S2140140502B4B984232D02B4B98422FD02A4B98426A
S2140140602CD000207047294B9842FAD1284B186F64
S2140140707047284B98422AD0274B9842F1D1244BBF
S214014080D3F880007047254B98422BD009D8244B93
S214014090984223D0234B9842E3D11D4BD3F88C0092
S2140140A07047214B984221D003F5740303F5105352
S2140140B09842D6D1164BD3F898007047144B986D9A
S2140140C07047134B586E7047114B586F7047104B23
S2140140D0986F70470E4BD3F8840070470C4BD3F89B
S2140140E0880070470A4BD3F890007047084BD3F806
S2140140F0940070470048E8010024F400C0CF6A002D
S21401410080841E0000093D0040420F00405DC6004D
S2140141100080E00FC0EA210180BA8C01007E5603C0
S21401412080D54302006CDC020090D00338B5134BF7
S2140141300546D3F820010C4600F00700042804D8F1
S214014140DFE800F01A0A0E1216000023184605B121
S214014150286004B1236038BDFFF720FB0423F6E78F
S214014160FFF758FB0323F2E7FFF76EFB0523EEE7A5
S214014170FFF766FB0223EAE70123E8E70080005029
S21401418037B50C460021124A0191D2F88021054626
S21401419002F00302022A0ED0032A11D0012A14D1FA
S2140141A001A8FFF7C3FF0D230DB1019A2A6004B1E0
S2140141B0236003B030BDFFF747FB05230190F3E70B
S2140141C0FFF73EFB02230190EEE70B46ECE700BF4C
S2140141D00080005038B5104B0546D3F840310C46E8
S2140141E003F00303022B0BD0032B0DD0012B0FD1B1
S2140141F01EF0D9FA082305B1286004B1236038BD42
S214014200FFF766FB0723F6E71EF0D0FA0923F2E76D
S21401421001230020EFE700BF0080005038B5104BA7
S2140142200546D3F860310C4603F00303022B0BD08E
S214014230032B0DD0012B0FD11EF0B5FA082305B1C3
S214014240286004B1236038BDFFF742FB0723F6E779
S2140142501EF0ACFA0923F2E701230020EFE700BFC6
S2140142600080005038B5144B0546D3F800020C46C2
S21401427000F00700042804D8DFE800F01B0A0E123D
S21401428016000023184605B1286004B1236038BD26
S2140142901EF089FA0823F6E7FFF71AFB0723F2E771
S2140142A01EF084FA0923EEE7FFF79EFA0C23800A34
S2140142B0E9E70123E7E700BF0080005038B5144B5B
S2140142C00546D3F808020C4600F00700042804D877
S2140142D0DFE800F01B0A0E1216000023184605B18F
S2140142E0286004B1236038BD1EF05DFA0823F6E7A6
S2140142F0FFF7EEFA0723F2E71EF058FA0923EEE776
S214014300FFF772FA0C23800AE9E70123E7E700BF0B
S2140143100080005038B5104B0546D3F840320C46A5
S21401432003F00303022B0BD0032B0DD0012B0FD16F
S2140143301EF039FA082305B1286004B1236038BDA0
S214014340FFF7C6FA0723F6E71EF030FA0923F2E76D
S21401435000231846EFE700BF0080005038B5104B29
S2140143600546D3F800310C4603F00303022B0BD0AD
S214014370032B0DD0012B0FD1FFF74CFA032305B108
S214014380286004B1236038BDFFF7A2FA0723F6E7D9
S2140143901EF007FA0623F2E701230020EFE700BF2D
S2140143A00080005038B50C4605461EF08EFA064BC6
S2140143B09A6A82EA040101EA050454409C62BDE857
S2140143C038401EF086BA00BF00C00050032814D043
S2140143D005D8012805D0022809D0002005E00F28BD
S2140143E0FBD1084B186FC0F3013001307047054B05
S2140143F0D3F89000C0F30460F7E7024B186FC0F3E0
S2140144008020F2E7008000501FB500230193252885
S21401441017D8DFE800F0131A1D262B353A50555AE7
S2140144205F646977161A3F1616551A262B26351A13
S2140144305026773A3A3A3A2626265A5FFFF7BAF9CD
S2140144400190019805B05DF804FBFFF7CDF9F7E799
S214014450FFF7B0F902460220FFF7B8FFB2FBF0F013
S214014460EEE7FFF7C1F902460320F5E7FFF7BCF9CF
S21401447002460320FFF7AAFFB2FBF0F04008DFE791
S214014480002101A8FFF77CFEDBE7002101A8FFF76A
S2140144904DFED6E702934FF0E0231B695B0705D577
S2140144A0FFF7A2F90290029B0193CAE703A902A8AB
S2140144B0FFF790FEF7E7002101A8FFF78BFEC0E7A4
S2140144C0002101A8FFF7AAFEBBE7002101A8FFF71C
S2140144D0C9FEB6E7002101A8FFF7F0FEB1E700210B
S2140144E001A8FFF73BFFACE7094BD3F8803003F098
S2140144F00303022BA9D0032B01D00020A0E7FFF76E
S214014500A3F99DE7002101A8FFF704FF99E700BF83
S2140145100080005008B50120FFF776FFBDE808408F
S214014520034988428CBF02210121032000F002B812
S21401453080F0FA02032810B50C4627D004D80128CB
S21401454004D0022817D010BD0F28FCD11EF0A0F908
S2140145501EF0A6F9124B013C196F21F4405141EAB5
S21401456004341C67FFF740F90021FFF739FDBDE869
S2140145701040FFF7CFBF0A4B013CD3F8901021F053
S214014580F85141EA0464C3F89040DCE7044B013C6F
S214014590196F21F4806141EA84241C67D3E700BFC8
S2140145A0008000501FB500230193252821D8DFE89D
S2140145B000F013202020202A2F454A4F54595E71BF
S2140145C020203420204A202020202A204520712F18
S2140145D02F2F2F2020204F54314B1B6F03F0070342
S2140145E0013B032B05D8DFE803F00C02080A04237D
S2140145F00193019805B05DF804FB0323F8E7062351
S214014600F6E70223F4E7002001A9FFF7B9FDF0E77A
S214014610002001A9FFF78AFDEBE702934FF0E023A4
S2140146201B695B0705D5FFF7DFF80B230393039B95
S214014630DEE703A902A8FFF7CDFDF8E7002001A9F0
S214014640FFF7C8FDD5E7002001A9FFF7E7FDD0E792
S214014650002001A9FFF706FECBE7002001A9FFF71E
S2140146602DFEC6E7002001A9FFF778FEC1E70C4B37
S214014670D3F8803003F00303022B03D0032B05D0BD
S2140146800023B5E7FFF7B0F80B23B1E7FFF7DCF837
S2140146900523ADE7002001A9FFF73CFEA9E700BF0F
S2140146A00080005008B5FFF77DFF07280ABF024BC0
S2140146B04FF6FF70188808BDC40C002038B50546B3
S2140146C0FFF7BAFC214B04465A68012A04D1204957
S2140146D04A609A699207FCD10020FFF763FF04281D
S2140146E003D11EF0D5F81EF0DBF81A4A24F0407309
S2140146F0954221D0184A954221D0184AD16811F026
S214014700060FFBD190689360916803F4F81301F4E7
S214014710F8118B4216D12846FFF746F80020FFF71E
S21401472041FF042810D1FFF75FF80021FFF758FC7E
S214014730BDE83840FFF7EEBE43F00073DDE743F017
S2140147408073DAE79060E9E738BD00BF00C001502A
S21401475000E0015040420F0080841E00000001501E
S21401476070B504460020FFF71DFF03287CD045F6F0
S2140147700E030221414AC2F88030414B9962012161
S21401478003F580539962936DD903FCD4D4E90013E1
S2140147901B0543EA0163E17B94F822500B43217B1E
S2140147A094F8236043EA0143617B43EA0133A17B2A
S2140147B043EA811313619169D4E904031B0643EAB2
S2140147C0806301F000410B43A17EE07E0B43217E16
S2140147D043EA0143617E43EA01239361136AE26976
S2140147E023F00D03002A0CBF0021082143EA02032F
S2140147F043EA8003214A43EA0103136294F8203016
S2140148004FEA431331D1906A94F8211020F0330017
S21401481043EA0113034343F001039362194B916D7D
S21401482033EA0101FBD10221154B9962936D5B00BE
S214014830FCD41069A36820F4700040EA03501061AC
S2140148404FF000420E4B9A611DB9022203F58053C8
S2140148509A6216B901220C4B9A6294F824301BB165
S214014860064B0A4AC3F8802070BD916A21F03301D5
S21401487031430B4343EA45039362EEE700C0005021
S21401488000D000500300014000E00050F1A7FFFFF8
S21401489013B5184CA16AA36D13F4803F18BF01220B
S2140148A0154B18BF9A6202229A62A36D5B00FCD474
S2140148B0124BA26993F9003022F47F0203440002EE
S2140148C022F47F4280B283F30803104340EA034098
S2140148D0A06102200191FFF765FDA36D019913F414
S2140148E0803F05D0012002B0BDE81040FFF75ABD59
S2140148F002B010BD00C0005000D00050D0250020EE
S214014900014B93F900007047D0250020012312487F
S214014910124A816A9362836D03F00303032BFAD173
S214014920022393620C4B9A6D5000FCD40C4A986D8E
S21401493032EA0000FBD10122084B1A65A3F5805329
S2140149409A6D9207FCD49A6D9007FCD59A6D9207E2
S214014950FCD50320FFF726BD00C0005000D0005054
S21401496003000100F0B5D0E901434FF4D156022708
S214014970164A417805785662154E4F2977604FF0F2
S214014980010728BF4F2106F5805677601669F603A2
S214014990FCD441EA052151611B01417B43EA042312
S2140149A00B43017B43EA41039360C37B817B1B017D
S2140149B043EA4113417C0B43017C43EA41035360C4
S2140149C0837C13B16FF4D1535362F0BD00000250E3
S2140149D000100250014B1880704700BFC40C002025
S2140149E0014B1880704700BFC20C0020034B58686B
S2140149F0C0F30800003818BF0120704700ED00E042
S214014A000A4A10B51369044643F00403136102F021
S214014A10ADFE1DF06AFF30BF1DF068FF02F0C2FE5A
S214014A201CB9BDE81040FEF7DFBE10BD00ED00E08A
S214014A30084A10B51369044643F00403136102F0F3
S214014A4095FE30BF02F0AEFE1CB9BDE81040FEF781
S214014A50CBBE10BD00ED00E0034A0179D36E23F012
S214014A6030030B43D366704700400050F8B5044648
S214014A700D461F4616464AB101238B403021194A7E
S214014A8001FB0022FFB141F21001535004EB440335
S214014A90072D4FF00F014FEA031317D8A80006FAA7
S214014AA000F28140104818441DF023FF56B9012139
S214014AB030230C4801FA05F503FB040077B141F2F7
S214014AC01003C550F8BD42F21001DEE7A5F108005B
S214014AD0800006FA00F281400448E4E742F210033F
S214014AE0EFE700BF00C0035004C003500CC00350E2
S214014AF04FF40012064BC3F88020BFF34F8FBFF36D
S214014B006F8F0022FF21034B5A6599625A607047E6
S214014B1000E100E000000450044A054B002918BFDC
S214014B201346012202FA00F0186070474020045034
S214014B304010045030B5047845788178C278012059
S214014B400F4B41EA0541240658609C609961FF219C
S214014B5099620021996319644FF0004159654FF03D
S214014B60FF314FF4001003F5005319650549130191
S214014B70DBB2C1F8800181F81533086030BD00BF93
S214014B800000045000E100E02DE9F04101250C464B
S214014B90C3B2DFF888E0D1F800809D408F7ACB7AE7
S214014BA094F80DC0097BCEF850500EF5005E4EF815
S214014BB020804FF0300E184E1B050EFB006043EAB6
S214014BC0074343EA415322F00302C0F860C0C365BD
S214014BD002671DF081FE736D2B437365237A13B153
S214014BE0336C2B433364637A13B1B36B2B43B363D8
S214014BF02279A37943EA0243084A93616179E3790A
S214014C0043EA014306498B61034B55639D64BDE846
S214014C10F0411DF067BE00BF0000045000200450A4
S214014C200010045010B50124C0B284401DF054FE9B
S214014C30044B5A6D22EA04025A659C62BDE8104094
S214014C401DF050BE0000045010B50124C0B28440CF
S214014C501DF042FE074BDA6A224209D15B6B34EA49
S214014C6003030CBF012400241DF03CFE204610BDAA
S214014C700024F9E70000045041F67132034BDA6371
S214014C80012203F50053DA60704700BF00000350AD
S214014C9041F671320121044BDA6303F50052D1600B
S214014CA00022DA63704700BF00000350CB784A78D1
S214014CB010B55B010C7843EA82030A79234343EA81
S214014CC002130C22424302F1B0421363012C02BFCD
S214014CD08A78024B43F8202010BD00BFD0800350D5
S214014CE008B54FF0B0435A6802B960B15B680BB1C2
S214014CF01DF011FE4FF0B04130B10120074B586056
S214014D001DF009FEC86008BD1DF005FE0223CB603C
S214014D101DF001FE0122024B5A60F4E70010005814
S214014D20002000584FF0B0435B6870B50BB11DF022
S214014D30F2FD0121104B4578596083780679002BE6
S214014D40C37814BF02240024002B14BF04220022BF
S214014D504379DB0043EA06132B43234313434FF007
S214014D60B0429360054B59600378002B14BF0B4685
S214014D700223D36070BD00BF002000580010005809
S214014D80054B5B69C3F38512827003F03F021B0B70
S214014D9042700370704700BF00C0075040F6B7323C
S214014DA0064B5B689BB293429FBF4FF47A72B3FB8C
S214014DB0F2F3034AD05C88BF002070470080E00F02
S214014DC02CEE0300014B986CD96C70470080E00F05
S214014DD00120034B9B680A3303F01F03984070477A
S214014DE00080E00F0D4B984208D1A3F50033C3F8BD
S214014DF08411C36D43F08003C3657047084B984226
S214014E0004D1A3F51033C3F89411F2E7054B984289
S214014E1004BFA3F52033C3F8A411EAE700800550C8
S214014E2000C005500000065070B5054616461C46E3
S214014E3019B90320FFF7E8FA0146402C1BD003D826
S214014E40DCB1202C1BD070BD602CFCD1042303FBED
S214014E5006F2560806EB4113B3FBF2F3094A203B70
S214014E6002EAC303AA6822F06002AA60AA68144391
S214014E70AC60EB61E7E70623E9E71023E7E70823E1
S214014E80E5E700BFF8FF7F00012200F5805310B56B
S214014E905A6040F6AA6341F20502436100231249B3
S214014EA08360C365C26000F500520361C361C364D9
S214014EB091640E498365884206D00D4CA04203D00A
S214014EC004F58044A0420BD18842036506D0084B06
S214014ED0984203D003F58043984201D100234365ED
S214014EE00123536010BD00BFFFFF01000080055085
S214014EF000C0055070B50D46FFF7C6FF012300F54B
S214014F0080567360AB7C04461BB1836843F08043D4
S214014F108360EB7C1BB12046297DFFF763FF2A8A5D
S214014F206B7B20461343EA891343E3602B7BD5E969
S214014F300112FFF779FF6B7D1BB1A36843F4803341
S214014F40A360AB7D1BB1A36843F40043A360EB7D74
S214014F502A7E1B07120502F4E00203F0E043134326
S214014F60A3656A7E931E012B214B20D89C421AD042
S214014F7003F580439C4218D003F580439C420CBF46
S214014F8002234FF0FF3341F2AC5102205B0103F1E3
S214014F90A04303F570335850032A23D10423F36545
S214014FA02B78636170BD0023EDE70123EBE79C429C
S214014FB014D0104B9C4213D003F580439C420CBF87
S214014FC002234FF0FF3342F2AC5102205B0103F1A2
S214014FD0A04303F570335850012ADEE70023F2E7B9
S214014FE00123F0E7042204F50053DA65D8E700BF91
S214014FF00080055000C0055038B50446054D28F020
S214015000EAFA0FCC0FC594E80F0085E80F000020E0
S21401501038BD00BF801A002047F6FF739A42F0B5EC
S21401502066D0022966D8344DCF0015F8313005EB2D
S214015030C100012B847813D10025C3781B1B9D4228
S21401504002D3E018C0B2F0BD591B4668A3EB51016C
S21401505036F911609642D4BF0D4601F1FF33EEE7F3
S21401506040680028EFD0B0F90030934204DBB0F975
S21401507002309342B8BF134682883D44FF2A19BFC7
S214015080C8214FF0280CB0F90610B0F908C0A1EB02
S21401509003020CBF0126002692FBFCF26D78324417
S2140150A012B2954201DD002A01DA6A1E12B24FF4ED
S2140150B07A7700EBC206F188B668013213FB01610C
S2140150C012B221EAE1715C319542B1FBF7F104DDE0
S2140150D000EBC206B6888E42EBD200EBC20232F873
S2140150E0040C884228BF0846A04238BF2046A9E7DC
S2140150F0FF20A8E70020A6E7801A00200229F0B5C5
S21401510053D82B4800EBC10410F83110636801290D
S2140151100FD1E078A478904294BFC4EB0001C4EBB1
S2140151200201001BCAB28242C8BF002233F9120034
S214015130F0BD002B39D0A178914202D3B3F9020019
S214015140F6E7E178B3F900009142F1D999886478DD
S214015150A1F1FF06013C714203F10405E4B271417D
S21401516003F10C071FFA82FCCEB2B44216D805EB47
S214015170C1014FF47A756A43B1F902404968521A7F
S21401518004EBD47102EB610292FBF4F29042CFDBA6
S214015190B3F902009042CBDC10B2C9E737F831E030
S2140151A04E1CE645E3D33146DEE70248C0E700BFC2
S2140151B0801A00200080FFFF08B50448FFF71CFF97
S2140151C0BDE80840012028F00ABA00BF30EE03000F
S2140151D000487047C60C00207FB50222084B0949DB
S2140151E0CDE901234FF00073CDE90313052301A98F
S2140151F04FF0FF30059328F024FA07B05DF804FB62
S214015200006A1800000204002DE9F0418CB08846BF
S214015210DDE912761D460446002847D0002945D010
S214015220002F43D0002E41D013F00F033ED120486B
S2140152302049A360002A18BF0146E361C4E90013B0
S214015240404609A91DF0C7FC68BB204609991DF018
S2140152507EFB294620461DF07AFB694640461DF036
S21401526059FD00BB694620461DF05DFB404603A97B
S2140152701DF05BFDB8B9204603A91DF054FB069747
S2140152800127204645F0005506A9079708951DF009
S2140152904AFB204609A909960A970B951DF04DFB76
S2140152A020461DF0D2FB0CB0BDE8F0812120FAE7C4
S2140152B000010104000100042DE9F0438DB0884689
S2140152C015461C460746DDF85090002850D00029A8
S2140152D04ED0002A4CD0B9F1000F49D00B68103BD4
S2140152E0102B45D8012606FA03F303F0013323F009
S2140152F08073002B3CD000231E4A8360C0E9002344
S214015300C36109A940461DF066FC70BB3846099981
S2140153101DF01DFB214638461DF019FB6946404627
S2140153201DF0F8FC08BB694638461DF0FCFA4046FD
S21401533003A91DF0FAFCC0B9384603A91DF0F3FA1B
S21401534044F00054384606A90695079608941DF0C1
S214015350EAFA094B384609A9CDF824900A960B9328
S2140153601DF0EBFA38461DF070FB0DB0BDE8F0837A
S2140153702120FAE70000040410000020F0B50C46D6
S21401538017461E46054695B0002874D0002972D0EF
S214015390002A70D0002B6ED0036B0F2B5BD8002336
S2140153A0364A3846C4E90023A360E36111A91DF01B
S2140153B012FC00285BD1204611991DF0C8FA296B12
S2140153C020460F2984BF01F00F0110311DF0BFFAEE
S2140153D0384602A91DF09EFC002848D1204602A9A5
S2140153E01DF0A1FA384605A91DF09FFC00283ED104
S2140153F0204605A91DF097FA0122214B089509922E
S2140154000A932B6B05F1100003F00F0141F00051D8
S2140154100B900F2B0C920D910E900F9243F00052B1
S214015420109226D90A9B08A923F0005320460A9316
S2140154301DF079FA0BA920461DF075FA0123119685
S21401544012930F4B204611A913931DF076FA2046AE
S2140154501DF0FBFA0BE000F12003019000930122FE
S214015460102339462046FFF7CFFE002897D015B007
S214015470F0BD0EA9DFE72120F9E700BF0000040414
S214015480100000202DE9F04F9BB00D46914698463E
S2140154900646DDF890A0002800F0B380002900F051
S2140154A0B080002A00F0AD80002B00F0AA80026BCD
S2140154B002EB0A031B09B3EB121F02F00F0700F001
S2140154C098800023504A8B60C1E90023CB6148468F
S2140154D017A91DF080FB0446002840F0868007EBE4
S2140154E00A0323F00F0B2846179900931DF02FFA95
S2140154F0594628461DF02BFA484602A91DF00AFC1B
S2140155000446002871D1284602A91DF00CFA484627
S21401551005A91DF00AFC0446002866D14FF00109D2
S214015520284605A91DF0FFF9384A284608A9089615
S214015530CDF824900A921DF0F6F947F00051ABEB36
S214015540070706F1100347F000570B93CDF830908C
S2140155500D91CDF83880CDF83C9010970D992846DE
S21401556021F000510D910BA901931DF0DCF928469D
S2140155700EA91DF0D8F9ABF11001244A41F00051F3
S2140155801194CDF84890139106F120011491CDF8AD
S214015590549016921399284641F08041139113991D
S2140155A021F00051139111A91DF0C7F9284614A93D
S2140155B01DF0C3F9154A17A928461796CDF860902D
S2140155C019921DF0BAF928461DF03FFA009B0446D1
S2140155D0ABEB0301A3EB0B02019B5144184641447C
S2140155E028F05DFC336B5344336320461BB0BDE8A3
S2140155F0F08F103052464146384428F050FC0024C3
S214015600F0E72124F1E700BF0302000410000020A8
S2140156102DE9FF4700230E4617460446009300284F
S2140156205BD00AB1002958D037F0030807F0030A07
S21401563025D04FF000094FF0E063C4E9003901239B
S21401564001962046029301A948F00053C4F8089039
S214015650C4F81C9003931DF070F9414620461DF0D6
S21401566076F920461DF0F1F9054640B14246494615
S214015670304628F03BFC284604B0BDE8F0874FF0E2
S2140156800009BAF1000F2AD04FF0E063C4E90039EF
S2140156900123CDF804D00293124B204601A9C4F889
S2140156A00890C4F81C9003931DF047F90421204686
S2140156B01DF04DF920461DF0C8F9054608B13A46D9
S2140156C0D5E7034600994644DA00013321FA02F28F
S2140156D09A4506F8012BF7D1CDE72125CBE75546AC
S2140156E0C9E700BF04000020F0B50F4616461D4668
S2140156F0044693B010B9212013B0F0BD0029FAD0AA
S214015700002AF8D0002BF6D0002331461A46384638
S2140157101DF016FA0028EFD1304602A91DF0B7F9A0
S2140157200028E9D138683449029A88426B695ED10B
S2140157309342E0D32B68002BDDD14FF060623846F0
S214015740C4E90023A360E36101A91DF044FA00281F
S214015750D2D10199204621F4F06101911DF0F7F8AC
S214015760694628461DF037FA0028C5D1204600991B
S2140157701DF0EDF8384609A91DF0CCFA0028BBD17A
S214015780204609A91DF0CFF838460CA91DF0CDFA20
S2140157900028B1D120460CA91DF0C5F8EB684BB125
S2140157A0284606A91DF0B6FA0028A5D1204606A966
S2140157B01DF0B9F8304603A91DF0B7FA00289BD1B1
S2140157C0204603A91DF0AFF828460FA91DF0ADFA33
S2140157D0002891D120460FA91DF0AFF803252046D9
S2140157E01DF033F9012887D1013DF8D184E7B3EBE9
S2140157F0420F9FD27FE700BF200000B070B50E4673
S214015800154604468AB000285CD000295AD0002AE2
S21401581058D0012329461A4630461DF091F9002832
S2140158204ED1B36813F4C04F4CD0AB6803F4C043F9
S214015830B3F5005F46D1254BA060C4E90030E061B6
S21401584007A930461DF0C7F9002839D12046079927
S2140158501DF07DF8012302934FF00053204601A965
S21401586003931DF060F8304604A91DF05EFA38BBBC
S214015870204604A91DF057F8EB681BBBAB6803F480
S214015880C043B3F5005F1DD1694628461DF024F9D3
S214015890B0B9009B6A699A4216D32A6943F000534D
S2140158A007920122204607A90892032509931DF0B5
S2140158B044F820461DF0C9F8012801D1013DF8D170
S2140158C00AB070BD2120FBE71D20F9E700000102A8
S2140158D01FB5044698B191B100230A4A8360C0E916
S2140158E00023C361012301910293074B01A903938E
S2140158F01DF023F820461DF0A8F804B010BD2120A5
S214015900FBE700BF000008430400002005289ABFFB
S214015910014B185C002070471CEF030030B5154B97
S21401592087B00293144B0390049346F611030D4679
S214015930059300F06DF91428044616D168461DF04B
S21401594003FB4FF0A843032202A95A6319601D61A5
S2140159509A63DA6B9207FCD1142C02D168461DF0CB
S21401596001FB00F085F9044601E00028E9D0204655
S21401597007B030BDA01A0020040000202DE9F04F2A
S214015980B1B005468C46E9466E4F3B9EDDF8F8E021
S214015990409C07F1100AC846386879680837A8E8B5
S2140159A003005745C146F6D10EEB0208C8F10009BF
S2140159B009F00F09002E00F0AF80774207F00F07BD
S2140159C00121DDF8FCB0C4F1100ACDF810B0059144
S2140159D044F0005106914FEA0A2101F4F85141F0D2
S2140159E02101079106B96B460893002D40F0968079
S2140159F0002C00F0938004AB0993002E00F09080F9
S214015A0046F000530A93002D40F08D80002C14BF01
S214015A100123212343EA07230B9308A942F00053ED
S214015A20CDF830C03D980D910E934FEA092343F00F
S214015A3041030F93109002B10CA9002A16BF002251
S214015A404FF00052412342EA0E0211911292139333
S214015A503C9B3D4A149310AB15933C4B0021169387
S214015A6040F6110317933A4B002D08BF13461893BF
S214015A7014AB1993374B10221A9311231B931CABAB
S214015A80184628F033FA01221D924AF080421E92EF
S214015A9000220346239205B9EB46102C08BF0123CA
S214015AA00DF1900A102200215046CDF880B02193C6
S214015AB0229428F01BFA002C37D020AB0021259326
S214015AC08F4218BF534647F0804226923A9A2CA836
S214015AD08A422892299313460CBF4FF080430B4607
S214015AE0102233432B912A9328F000FAFEB953462D
S214015AF0C8442D932CA948F0804318A82E93FFF78D
S214015B000DFF30B92DB90346A34212D1002818BFA4
S214015B102C2031B0BDE8F08F102751E701236BE749
S214015B2047F000536EE7212374E70123C6E728AB4D
S214015B30DEE703F1C0026A4412F8C02C01331043B9
S214015B40E2E700BF22EF030034EF0300100000205D
S214015B5038EF030004000020F0B5C0299FB0249E52
S214015B604FD0B1F5807F04D0802941D029201FB0C5
S214015B70F0BD40F2344440F21445002E08BF2C46D6
S214015B802127102501940124029603940495059774
S214015B90259F069706B102AC07940124089509943F
S214015BA00A9221220B940C950D92174A0AAC0E927A
S214015BB0164A0F94109242F6110211921293139400
S214015BC01495159201AA1692CBB112AB1793042322
S214015BD018931123199316AB1A901B9340F61103D1
S214015BE0C9081C911AA806A91D93FFF797FEBEE7E0
S214015BF0002E14BF4FF486644FF48264C0E70EABE8
S214015C00E4E70F20B3E700BF3CEF030010000010ED
S214015C10144A38B5D2F8803243F00103C2F8803214
S214015C20114B5B68C3F3080343B14FF0A842D36B33
S214015C3013F0430FFBD11424204638BD4FF0A84380
S214015C40DC6B14F04304FBD1084D2B681BB904210F
S214015C50284602F099FC2B68013343F000432B6081
S214015C60EAE700BF0080005000ED00E0A01A002027
S214015C70014B00205B68704700ED00E0012300F057
S214015C801F02A0F506200949A0F55060400993407F
S214015C9051F820201A4341F82020054951F82020C8
S214015CA022EA030341F82030704700BFA41A0020FF
S214015CB0B81A00200121A0F506230F4AA3F5506368
S214015CC05B0900F01F0001FA00F052F823100843A8
S214015CD00A4942F82300D1E90030034488680344A6
S214015CE0C868096903445B1802BFC2E90033C2E908
S214015CF002331361704700BFB81A0020A41A0020AF
S214015D002DE9F04FA9B002921D46DDE9326704463F
S214015D100822CDE90301414021FA02F34B409807DE
S214015D2002F1080218BF9B00202A1C44F4D18123EB
S214015D30B4FBF3F303EBC313E41A7A4B04F506241E
S214015D401B7804F55064002B40D1FEF7EFF80146AE
S214015D5020B16FF0910029B0BDE8F08F4022059088
S214015D6008A828F0C3F84022059918A828F0BEF81C
S214015D70DFF8C891DFF8C8A14B4603F10F0B1022DC
S214015D8008A9DAF80000CDF800B0059327F0E5F988
S214015D9000220146059B09F110090DF120089142E8
S214015DA04CD1CDF800B01022DAF8000018A927F07F
S214015DB0DDF94FF0000B03460DF160085B4549D154
S214015DC0594B9945D8D10122564B1A704FF081088C
S214015DD04FF00009DFF868A1A4F506235349A3F59F
S214015DE05062520951F8221004F01F0C21FA0CF1EE
S214015DF0C90744D44E4951F8220020FA0CF010F09D
S214015E00010030D0B9F1000F08BFA146A3F6FF4448
S214015E108123B4FBF3F303EBC313E41A04F506245E
S214015E20B8F1010804F55064D6D1029BEBB1B9F183
S214015E30000F1AD0349BC3F800906DE058F8040B9D
S214015E40CDE906230591FFF719FF069A079B0599E9
S214015E500132A4E758F8040B05930BF1010BFFF789
S214015E6029FF059BAAE7029B13B96FF08B0072E727
S214015E70349BB9F1000F4ED0C3F800906BE70EB11A
S214015E80002333600FB100233B604FF0100B00235B
S214015E902A462146DAF80000CDF800B014F000FBDF
S214015EA008BB0EB1C6F800B02B68224A934224D133
S214015EB066B15FB13B462146DAF8000018AA14F035
S214015EC043FB80B93B6832689B1A3B60D5E90223E5
S214015ED0DDE90310834208BF8A4216D0A4F50624E2
S214015EE0A4F6FF4494E7144B984206D01233984226
S214015EF003D0133B9842E9D02BE72146DAF800009D
S214015F0014F068FB0028E1D0AFE7029B13B16B6881
S214015F10012B03D0349B1C6000201CE76FF084002B
S214015F2019E700BFD125002000710800A41A00203F
S214015F30B81A0020105D175EFFDF00F0006D080044
S214015F40E00A00202DE9F04F87B082468946984640
S214015F501646DDF840B02AB1002B4ED040F26C73E5
S214015F609A424DD8BBF1010F4DD8002406F1100717
S214015F703946012005941DF0E7FD0546002845D069
S214015F8021463A4627F0B2FF05ABCDE9014300941E
S214015F902B46012250464946FFF7B2FE044680B121
S214015FA010F18C0F08BF6FF08D043A460021284689
S214015FB027F09CFF28461DF0D8FD204607B0BDE817
S214015FC0F08F144BC5E902A92B60C5F804B02EB1B9
S214015FD03246414605F1100027F061FF0E483B4668
S214015FE02A460599006814F0C3F918B90598FFF711
S214015FF045FEDAE76FF09104D7E76FF08604DCE739
S2140160006FF09104D9E76FF08504D6E76FF08C0442
S214016010D3E700BF105D175EE00A00202DE9F043CC
S2140160208DB08146DDE914780C4615461E469BB1B7
S214016030B8F1000F05D16FF0860420460DB0BDE81B
S214016040F083002FF7D0B7F1005FF4D3C3F100530C
S21401605003F5C0339F42EED81022002108A827F08E
S21401606045FF002207AB029305AB019306AB214621
S2140160700093484608ABCDE90522FFF741FE0446EA
S2140160800028DAD10599DEB1A94203D80029D2D178
S21401609015B1D0E70029FBD0491BB14228BF3146D4
S2140160A0069B0948C8F8001000913A46079900680F
S2140160B02B4414F0F5F9002818BF6FF09104BCE7E3
S2140160C0A942E9D2B7E700BFE00A002030B58DB09B
S2140160D00C4605461022002108A827F007FF0022DB
S2140160E007AB029305AB019306AB21460093284606
S2140160F008ABCDE90522FFF703FE0446D0B9099B9C
S214016100012B1AD0104B0799186814F063FAB8B926
S214016110012207980D49A0F50623A3F550635B09F4
S21401612000F01F05AA4051F823506A4041F8232089
S214016130FFF7C0FD20460DB030BD6FF08404F9E7CF
S2140161406FF09104F6E700BFE00A0020A41A0020D1
S2140161502DE9F04F93B00446DDE91E75DDE92068B0
S2140161609346DDE91C028A46DDF8889029B96FF06E
S2140161708604204613B0BDE8F08FBBF1000FF6D0C1
S2140161800FB9002DF3D108B9002AF0D116B9B8F12C
S214016190000FECD1B9F1000FE9D02D4A934244D15A
S2140161A02388B3F5105F40D12022002102A827F0F2
S2140161B09DFE202200210AA827F098FE02A81CF0C6
S2140161C057FC78BB20465A4651460AAB1CF042FFA4
S2140161D004460028CDD10A981CF030FF044600285A
S2140161E0C7D115B9C9F80000C3E7B7422CD27B194D
S2140161F09E4229D24545BAD839462A46304627F026
S2140162005BFE374615F00F0AB1D1CDE900762B4675
S21401621052460AA902A8FEF7F7FF074640B9C9F891
S2140162200050A6E76FF09204A3E76FF08504A0E79D
S21401623042465146304627F059FE012FC9F800A0C4
S214016240F0D16FF08B0494E74545DBD98FE700BFAB
S214016250004440042DE9F04FB3B00C46054600213A
S214016260164602A820221F46DDF8F080DDF8F890D9
S21401627027F03CFE202200210AA827F037FE202224
S214016280002112A827F032FE202200211AA827F0AA
S2140162902DFE00213C2223A8229127F027FE002C68
S2140162A078D0002E76D0B8F1000F73D0B9F1000F78
S2140162B070D0409B002B6DD0B4F800B0B4F802A0AB
S2140162C00BF4E043B3F5804F64D03D4B3D4A2B4081
S2140162D043F01063934205D06FF08504204633B037
S2140162E0BDE8F08F0AF10703B7EBD30F4FEAD305EA
S2140162F050D33F9B9D4260D81AA81CF0B9FB10B141
S2140163006FF09204EAE7002301A91AA80193FFF7A8
S214016310DFFA0028F4D1019B2B4A23F07F439342F6
S2140163200193D9D947F212139B45D5D1BAF5807F8F
S214016330D2D1264B0D900A9308F101030E933D9B93
S2140163401590023323F003030F93402317936B003A
S214016350204613933A4631460DF1880802ABCDF834
S21401636058801CF077FE04460028B7D10C9B12908B
S21401637043F400531AA80C931CF07AFB0028BFD1F3
S21401638012AB0AAA02A91AA8FFF7AEF9064620B16F
S2140163904828A1D06FF08604A0E72A464146484621
S2140163A027F07DFD324608EB06030136412E02D169
S2140163B0409B1D6092E71A70F5E76FF089048DE740
S2140163C00000FFF600000209010201002000008023
S2140163D0F8B5134642880C460732072A4FEAD2011F
S2140163E004D0A14202D06FF0860019E04768058804
S2140163F0C66820221846002127F078FD3F0A03468A
S214016400002F45D1002CEED041F20102954205D075
S214016410B5F5885F02D0B5F5905F02D100205C60CB
S214016420F8BDB5F5105F07D1182C03D0202C01D08C
S214016430102CD8D11C60F1E705F44F42B2F5824F1B
S21401644002D06FF08500EBE7EAB2122AF9D1202CD0
S214016450F7D1114A25F0FF05B5F5E24F02600DD1DF
S2140164604FF4804216F470509A600DD016F48640B0
S214016470E7D19A6842F480629A60D1E7B5F5824F17
S214016480B1D14FF40052EDE79A6822F48062F3E747
S2140164906FF08B00C4E700BF200000802DE9F04FAD
S2140164A098460388144603F44F42B3B0B2F5824FC0
S2140164B00E46DDF8F8A002D06FF0850002E021B9A3
S2140164C06FF0860033B0BDE8F08F002CF8D0BAF13B
S2140164D0000FF5D0DAB2122AEED123F0FF03B3F59E
S2140164E0E24F36D14388CAF800306BBBE300CAF8E6
S2140164F00030DAF80030B3F5807FDDD1002318468E
S21401650054493519214411F8017D15F8012D104320
S214016510D21B0CBF4FF0FF370027AE4203EA07033A
S21401652043EA0203EFD10028CAD0002BC8DA3C9B0D
S2140165309C4200F28C8022463146404627F0AFFC52
S2140165403D9B00201C60BDE70733B4EBD30FD0D0D2
S214016550B6E7B3F5824F77D10B78042BB0D1202262
S214016560002101A827F0C2FC01A81CF081FA00282E
S21401657067D10090694601A8FFF7AAF9002860D103
S214016580009B354A23F07F43934295D900273E224C
S214016590394622A8219727F0A9FC01234FF0420B88
S2140165A02022394609A88DF8843004F1FF3927F0F6
S2140165B09DFC731C2022394611A80D9321ADCDF800
S2140165C0389027F093FC2022394619A81595CDF866
S2140165D058B027F08BFC4FEAC9025208B2F5807F0B
S2140165E0CDE91D5BCAF800200BD003D8E02A3FF4A2
S2140165F063AF65E7B2F5C07F3FF45EAFB2F5047FE7
S214016600F5E7164B09AA099311934FF400530B9320
S2140166104FF480431393402311A91A9301A819AB91
S214016620FFF762F8DAF800300733DB085A002BB9B7
S21401663000283FF47CAF43E705F8017B013AFBD223
S214016640F6E76FF092003DE76FF096003AE76FF0DD
S214016650890037E740EF03000102010020000080B7
S2140166602DE9F04790B0DDF8608006460C4692466C
S2140166701A9FB8F1000F05D16FF08604204610B0BE
S214016680BDE8F0870393002FF6D00028F4D020222F
S21401669000210DEB020027F029FC08A81CF0E8F900
S2140166A0039B10B16FF09204E8E714F47C1FC4F367
S2140166B005452CD0102DDFD8199A954237D81F4A98
S2140166C024F47E14944235D100220DF11009CDE94F
S2140166D00422CDE9062231465246CDF8009008A89C
S2140166E0FEF7EAFD0446B0B92A464946404627F079
S2140166F0D6FB224609EB04030134112C09D10024F0
S2140167003D6008A81CF0BEF90028B7D0CAE71025DE
S214016710D2E71A70EEE7212806D0012814BF6FF0E1
S21401672092046FF08B04ECE76FF08604E9E76FF0F4
S2140167308904A3E76FF08504A0E700BF0002C00349
S21401674070B50E461446054610B96FF0860070BD4A
S2140167500029FAD03822002127F0C8FB094B24F47F
S2140167607E129A420AD13388B3F5105F06D1C4F37C
S2140167700543102BE9D800202C60E8E76FF0850070
S214016780E5E700BF0002C003F0B50F4616461D46FA
S21401679004468BB070B302B963BB2022002102A865
S2140167A027F0A4FB02A81CF063F9A8B92368134AD2
S2140167B023F47E13934214D14DB133463A460095E5
S2140167C002A9201DFEF75EFE01280DD078B900242F
S2140167D002A81CF057F908B16FF0920420460BB0DE
S2140167E0F0BD6FF08804F3E76FF08B04F0E76FF00D
S2140167F09204EDE76FF08604F0E700BF0002C003E5
S2140168002DE9F0418CB0884616460446129F0028B2
S21401681041D0002A3FD0002B3DD0002F3BD0102B7B
S21401682028BF10231D46036813F47C1FC3F30542DB
S21401683002D0954228BF15461A4A23F47E13934286
S2140168402CD12022002104A827F050FB002304A805
S214016850CDE90033CDE902331CF00AF940B96B46A5
S214016860424604A9201DFEF789FD20B100233B60A6
S2140168706FF092000CE004A81CF004F9044600280E
S214016880F4D12A466946304627F009FB20463D608A
S2140168900CB0BDE8F0816FF08600F9E76FF0880074
S2140168A0F6E700BF0002C0030023C36001F138030E
S2140168B0036120230A6843618B6D0B4922F47E1223
S2140168C08A42436003D001F580718A4208D1102BB9
S2140168D002D1036000207047182BFAD0202BF8D085
S2140168E06FF08800704700BF0001C00313B5002495
S2140168F0064A6846536F43F00103536700948DF8C8
S2140169000440FEF7A9F8204602B010BD0040005032
S21401691008B50248FDF7D2FE002008BD00B4C40445
S21401692030B58BB06C46174D0FCD0FC40FCD0FC4CD
S21401693095E8030084E80300134BD3F84C211203B7
S21401694018D4D3F85041E4B28DF81940FDF7D8FFBA
S214016950204480F308008DF818000C48FCF760FF0F
S2140169606846FDF7FDFE4FF4FA70FEF739F8002091
S2140169700BB030BD064B1C884FF6FF739C4208BF18
S2140169808124E1E760EF03000080E00F00F0490298
S2140169900001E00F30B5094D87B001AC0FCD0FC433
S2140169A02B6801A8236025238DF80530FDF7DAFF53
S2140169B06420FEF70FF8002007B030BD88EF030013
S2140169C06FF00402502110B50A480B4C12F0800FEC
S2140169D0D3B21BBF03F00F03043BA3181B1802F12D
S2140169E001020CBF83F8001319763D2AEED1002070
S2140169F010BD00BF00ED00E000E100E010B5044668
S214016A001BF063FF024B1C601BF063FF002010BDF0
S214016A10CC1A002010B51BF058FF034B1C681BF066
S214016A2058FF204610BD00BFCC1A0020034B02229F
S214016A3018680023806819461AF03ABFF00B002048
S214016A4030B51446054687B010461CF050FE636903
S214016A50024683423CBFD4E903315B181B1A7BB163
S214016A600F49284603910021CDE901310123049401
S214016A700093D4E900131BF0BCFE002007B030BD24
S214016A800122627694F82D20002AF6D084F835305B
S214016A901321E369204698472046636A9847ECE746
S214016AA0416A01002DE9F04788B00446884617463A
S214016AB099461BF011FF8246002F7AD0237E03F001
S214016AC0FF02002B00F0A28020461CF010FE666933
S214016AD0B04205D1637ED4E903521544AD1B01E0F3
S214016AE0F9D9851BBD4228BF3D461BF0F5FE94F83B
S214016AF02D300646002B6DD12A464046616927F0A7
S214016B00CEF963692F462B44636121E0037803F0D5
S214016B10FD0111295BD1216B814205D1A3F1110140
S214016B204B424B4184F83430013F6369216B01329B
S214016B308B4203F1010308BF2363636195426069D9
S214016B40E4D1D4E90323216B1344994200D1226393
S214016B500025D4E9032361691344994208BF6261A1
S214016B60207A6576FDF7EEF820461CF0C0FD6369D5
S214016B70834232D1257694F82D30E568656103B1FC
S214016B8025632046636A9847214B2A4603930023D0
S214016B9002932369216801930123207A00930494C8
S214016BA063681BF026FE207AFDF7ECF830461BF0F2
S214016BB099FE5046C9F800701BF094FED9F80030D3
S214016BC0002B0CBF1B20002008B0BDE8F08708F89A
S214016BD0013BAAE72F460022B0E70123207A23765D
S214016BE00DF11E01FDF736F99DF81E30002BDAD0A7
S214016BF00DF11F01207AFDF705F99DF81F100029F8
S214016C00D1D12246207AFFF71BFFCCE71746D0E703
S214016C10416A0100002808DB0123420900F01F0039
S214016C2003FA00F0014B43F82200704700E100E050
S214016C30002809DB0122430900F01F0002FA00F0D8
S214016C40024A603342F82300704700BF00E100E0CB
S214016C5070B504460568FFF7DDFE844202D10020C8
S214016C60FFF7CCFE95F93600FFF7E2FF95F93630CF
S214016C70002B0DDB01215A0903F01F0301FA03F370
S214016C801849203241F82230BFF34F8FBFF36F8F80
S214016C9095F93700FFF7CCFF95F93730002B0DDB60
S214016CA001215A0903F01F0301FA03F30D492032AB
S214016CB041F82230BFF34F8FBFF36F8F287AFDF76D
S214016CC081F8287AFCF7E4FFFCF7C0FF002328468A
S214016CD0C4E90033C4E90433A360AB6ABDE870407D
S214016CE0184700BF00E100E02DE9F0410C461546CB
S214016CF0064686B04022002120461F4627F0F6F8B9
S214016D0095E8030000232A692376EB6884E80300EC
S214016D10C4E904232A7DE36084F82C20AA7D23633A
S214016D20012384F8343084F835300C9B84F82D2008
S214016D3023620D9BE76163620E9BA3622B7A84F844
S214016D4036306B7A84F837302D4B346073602D4BB8
S214016D50B3602D4B33612D4B73612D4BF360FCF704
S214016D60BDFF38B12B4B984204D01024204606B004
S214016D70BDE8F081002104F10800FCF737FF074663
S214016D800028F2D14FF00108234B3362234B84F8DD
S214016D903C80B361224BF3619DF8403084F83900A2
S214016DA084F83B309DF83C30204684F83A30697DC3
S214016DB084F838801CF0ABFC95F90900FFF738FF22
S214016DC095F90900FFF726FF164B0494CDE90273E7
S214016DD02369CDE900836368E2682168207A1BF0A5
S214016DE008FD04460028C0D195F90800FFF720FFEA
S214016DF095F90800FFF70EFF3046FFF7FFFDB5E7F0
S214016E005F370300A56A0100DD360300E3360300A1
S214016E10516C0100038000F0B33603000F37030006
S214016E20E9360300416A01002DE9F0414FF00108FF
S214016E301C46584B86B00293574B0C9D0193574BFB
S214016E40174600930A46CDE903882946544BFFF7B7
S214016E504BFF0646002876D1236804222B6423794B
S214016E6085F84430A17985F84610607985F84500A3
S214016E70237A85F84830E37985F84730A37A85F890
S214016E804A30637A85F84930237B85F84C30E37ABB
S214016E9085F84B304346FDF7E9FD43460222217A49
S214016EA0E079FDF7E3FD3E7039462068FEF722F8EB
S214016EB01421A27B3B4B03EB4210C0F8AC1594F8AF
S214016EC006C061792E3203EB421341EA0C41596048
S214016ED0227AE37943EA0243C0F8BC3585F84D606F
S214016EE07B7E032B53D8DFE803F01F02324D0123CC
S214016EF0002785F84D3000230222A17A607AFDF73B
S214016F00B5FDA17A627AA37B42EA014241F2B4510D
S214016F105B0103F1A04303F570335A500422236842
S214016F2003F58053DA65AFB963792A6C85F8453085
S214016F30A379052185F84630D36C206843F0040315
S214016F40D3641BF02BFD304606B0BDE8F08102236A
S214016F5085F84D3000230422217BE07AFDF786FD7B
S214016F6041F2AC520221A37B5B0103F1A04303F57E
S214016F7070339950217BE27A42EA014241F2B851DC
S214016F805A50D1E70323012785F84D30B3E723266E
S214016F90D9E700BF893803007D3803000D390300A7
S214016FA00139030000C00350BFF35F8F074B5A6AD5
S214016FB022F480325A62D3F8942022F00102C3F8F8
S214016FC09420BFF34F8FBFF36F8F704700ED00E043
S214016FD070B52648264CFFF7E7FF844208BF4FF0FE
S214016FE08043244A18BF20F01F03D2F8C01018BFF0
S214016FF0203B21F0FF0141F0A001B3F1005FC2F890
S214017000C0100CD31C4D1D4E296843F00103C2F875
S21401701098100131C2F89C60C2F8A0302960844201
S21401702010D01548164B0268124923F01F0343F08F
S2140170300303C1F89820C1F89C30124B0132C1F805
S214017040A0300260BFF35F8F05220A4BC3F894207D
S2140170505A6A42F480325A62BFF34F8FBFF36F8F82
S214017060BFF34F8FBFF36F8F70BD00BF040D0020BD
S214017070A00E002000ED00E0D01A00200300002042
S214017080BF0E0020E1FFFF3FF8B51446FFF78CFF67
S2140170901F2C27D90027C2062A4D1CBF20F01F002F
S2140170A020302A68CB06284B18BF21F01F01FCB2FE
S2140170B0A24219D8D3F8C04020F01F0024F47F4420
S2140170C044F4807421F01F01C3F8C04040F003006F
S2140170D0C3F8982041F003010132C3F89C00C3F8BD
S2140170E0A0102A6000201AE0C3F89840D3F89C400C
S2140170F0D3F8A06024F01F04A04226F01F0601D199
S214017100B142EFD0B04201D8A14207D2D3F898409D
S214017110013724F0FF04C3F89840C8E72820BFF3DE
S2140171205F8F0522084BC3F894205A6A42F48032D6
S2140171305A62BFF34F8FBFF36F8FBFF34F8FBFF30B
S2140171406F8FF8BDD01A002000ED00E0BFF34F8F1F
S2140171500549064BCA6802F4E0621343CB60BFF3ED
S2140171604F8F00BFFDE700BF00ED00E00400FA0509
S214017170054B1A782AB95B78002B14BF022003202E
S21401718070470120704700BFDA2500200329F8B5B3
S21401719098BF124B05460E468CBF00245C5C032844
S2140171A005D8DFE800F002080B0E44F002040C4B91
S2140171B01F684FB9F8BD44F00804F8E744F020040E
S2140171C0F5E744F08004F2E77B681A68144203D0BE
S2140171D0314628465B6898473F68EAE79CEF03001C
S2140171E0F81A002038B5104D2B78ABB10F4C237828
S2140171F01BB100F00FFB0023237000201CF0F0FBF6
S2140172000B4C50B100F058FB0023012120782B7065
S214017210FFF7BCFF0123237038BD0122054B1A700E
S2140172202278054B1A70F7E7D9250020D4250020CF
S214017230D2250020D8250020DE25002010B51BF021
S21401724044FB064B04461B781BB1BDE810401BF0FF
S21401725040BBFFF7C7FF2046F7E700BFD325002056
S214017260002814BF0121FF21074A13780B4413702D
S21401727008D0064B1B78012B04D9054B1B780BB99C
S214017280FFF7B0BF704700BFDA250020D2250020E7
S214017290D825002070B51BF018FB124E0546337832
S2140172A09BB900F031FC044620B128461BF011FBC7
S2140172B0204670BD0C481BF07CFA00F083FE0B4B99
S2140172C01C6000F0E5FC0A4B186000F0B3F91CF0F6
S2140172D089FB084B002418600123284633701BF0F5
S2140172E0F8FAE5E7D5250020F81A0020001B002053
S2140172F0FC1A0020F41A002000292DE9F34114BFDE
S2140173000121FF21254A00F1FF30135C0B44135481
S2140173103AD0234E3178012936D9FFF729FF0128C3
S214017320044634D81F4F1BF0D0FA3B781BB31E4DD2
S2140173302B781BB901222A701C4A1370DFF8708063
S21401734098F8003033B1019000F064FA00230198F8
S21401735088F800301BF0BDFA01201CF041FB1BF041
S214017360B4FA2B782BB1019000F0A6FA002301980D
S2140173702B7000233B701BF0ACFA3078844203D0AC
S2140173802146FFF703FF347002B0BDE8F081032900
S214017390F3D10228F1D11CF029FBEEE7DA25002013
S2140173A0D2250020D9250020D3250020D82500206D
S2140173B0D425002068B51BF088FA094B06461B78D1
S2140173C0012B04D81BF085FA0025284668BD054B1D
S2140173D01D6800F0AFFA054430461BF07AFAF4E770
S2140173E0D2250020001B002038B5416004461BF062
S2140173F06CFA0546214604481BF0DEF92846BDE82E
S21401740038401BF066BA00BFF81A0020054B1B680F
S2140174105843054B00F5742000F23F20B0FBF3F013
S214017420704700BFFC1A002040420F002DE9F043D0
S21401743085B0EFF3108672B600E000BF1BF020F9AE
S214017440002800F08980674D674F2B7823B1002014
S214017450FFF706FF00232B70FFF78AFE044600287D
S21401746000F08180841EE4B2012C40F28380FFF795
S2140174707FFE0128804604D95C4B1B780BB900F0CF
S21401748067F95B4CDFF888912078404507D099F87A
S214017490003013B94146FFF779FE84F80080B8F151
S2140174A0010F0FD9DFF8448198F8003053B9514BDA
S2140174B01B7823B900F0A8F901224F4B1A7001235B
S2140174C088F80030207800F01FFA99F8003013B1E0
S2140174D04A4B1B78237000E000BF06B962B6EFF393
S2140174E0108672B6464B1A7852B100221A70434B78
S2140174F020781B78984203D101212170FFF746FEC0
S214017500384600F03BFB1BF0C6F8804600289CD1AD
S214017510364F3B789BB189F80000DFF8DC9099F88C
S21401752000301BB100F076F989F8008000201CF0CD
S21401753057FA00284DD000F0BFF900233B702B7896
S21401754023B10020FFF78CFE00232B70002120784A
S214017550FFF71CFE0023237000E000BF06B962B6E9
S21401756005B0BDE8F0832B78002B80D0FFF778FEBE
S2140175702C707CE7002003A900F044FB0446002899
S2140175807FF475AF1F4B039A1B689A4205D80120FA
S214017590FFF766FE01232B7069E71B4BD3F80080CB
S2140175A000F0C8F9039B80449845F0D200F0DAF960
S2140175B000280CBF00230423039943F00203CDE9FE
S2140175C0004338462346114AA1EB08011CF00FFA86
S2140175D04DE7012000F098F906B962B6EFF3108680
S2140175E072B6A3E7DD250020D41A0020D925002095
S2140175F0D2250020DC250020D4250020DE25002011
S214017600D7250020F41A0020001B00203D7201003F
S214017610D825002010B51BF058F90022044B1C7821
S2140176201A701BF056F900F01BFC2043C0B210BDC7
S214017630D62500203B4A3C49136F70B503F007037B
S2140176400B60D2F80011394801F003010160384996
S214017650384D8969032BC1F3400129705AD0D2F8FD
S214017660203103F00703981E43424341D2F880229B
S214017670314C02F0010213434FF4C8702370FFF738
S214017680C5FE2E4B2E4A18600A2316682D49013B6B
S21401769013F0FF0341F8040BF9D100EBC0033044AB
S2140176A018442B781060284D6BB323781D4A3BB9DC
S2140176B0D2F8003103F00303591E4B424B412370AD
S2140176C0D2F8003103F00303022B25D0032B26D07A
S2140176D0012B18D1FCF79EF8A8B1154B411EDC68AA
S2140176E00023024608461946C4F30B04174E01341C
S2140176F004EB8404E4FB060119F066FDFFF786FE41
S2140177002B68184428601F20FFF780FE2B6818445A
S214017710286070BD0123A9E7FCF7DAF8DCE71BF067
S21401772040F8D9E7008000500C1B0020041B002005
S21401773000C00150E0250020E3250020401B00206A
S214017740141B0020181B0020441B002040420F0081
S214017750044B054AD3F8203103F0070313601BF0EE
S214017760C6B800BF00800050081B00200B4B1A78DB
S21401777092B100221A700A4A136F23F0070343F0EE
S21401778001031367D2F8203123F0070343F0040303
S214017790C2F82031FCF728B8704700BFE125002069
S2140177A00080005008B5134B1B7813B302201CF061
S2140177B07FF9F0B100F058FAD8B10F4B9A6DD103AA
S2140177C002D5DA6D920714D49B6DDB0711D4012222
S2140177D00A4B1A701CF04BF9094B0A4A1860136FD2
S2140177E023F0070343F003031367BDE80840FBF7E4
S2140177F0FBBF08BDE325002000C00050E2250020A5
S214017800101B0020008000500122014B1A707047A7
S214017810E1250020F8B51F4B1B78002B39D01E4CF4
S2140178202378B3B91D4B9A6DD10302D5DA6D920751
S2140178302FD49B6DDB072CD41CF019F9184B194A71
S2140178401860136F23F0070343F003031367FBF776
S214017850CBFF1CF00CF9124B134D1B68134EC01ACC
S2140178602B78134F56F8232046F82300111A3A684E
S2140178701048521A0A213A600932B2FBF1F201337A
S214017880DBB20260B3FBF1F201FB12332B70002373
S2140178902370F8BDE3250020E225002000C000503B
S2140178A0101B002000800050DF250020181B002040
S2140178B0141B0020401B002008B51BF019F80D4AC8
S2140178C00D49136F096823F007030B4313670B4930
